:100000005DC181C171C77FC17EC123C77CC17BC176
:100010006AC779C178C177C1EEC775C174C10000E4
:10002000000000000000002F000000000700070093
:1000300000147F147F1400242A7F2A1200626408AF
:10004000132300364955225000000503000000002C
:100050001C224100000041221C000014083E08142C
:100060000008083E0808000000A06000000808081A
:100070000808000060600000002010080402003E34
:100080005149453E0000427F4000004261514946CF
:10009000002141454B31001814127F1000274545BF
:1000A0004539003C4A4949300001710905030036D1
:1000B0004949493600064949291E000036360000E4
:1000C00000005636000000081422410000141414E9
:1000D00014140000412214080002015109060032E4
:1000E0004959513E007C1211127C007F4949493622
:1000F000003E41414122007F4141221C007F49498D
:100100004941007F09090901003E4149497A007FC0
:100110000808087F0000417F4100002040413F0166
:10012000007F08142241007F40404040007F020CC5
:10013000027F007F0408107F003E4141413E007F66
:1001400009090906003E4151215E007F091929462F
:100150000046494949310001017F0101003F40400B
:10016000403F001F2040201F003F4038403F0063B9
:1001700014081463000708700807006151494543DB
:1001800000007F41410000020408102000004141AE
:100190007F00000402010204004040404040000093
:1001A00001020400002054545478007F484444382D
:1001B00000384444442000384444487F00385454B4
:1001C000541800087E0901020018A4A4A47C007F32
:1001D000080404780000447D4000004080847D00D5
:1001E000007F102844000000417F4000007C04187C
:1001F0000478007C0804047800384444443800FC47
:10020000242424180018242418FC007C0804040862
:1002100000485454542000043F444020003C4040D7
:10022000207C001C2040201C003C4030403C00440E
:1002300028102844001CA0A0A07C004464544C4416
:100240000008364141000000007F000000004141ED
:1002500036080008040810087765616B004F4B00F2
:100260004261743A20005369673A20004672713A3D
:100270002000566F6C3A200053746174696F6E3AB7
:1002800020200054696E7920464D2054756E6572A9
:100290000054756E696E67202E2E2E00000000003F
:1002A00036000000000038000000000037000202A5
:1002B000020202020102040810201B0A11241FBEC0
:1002C000CFE5D2E0DEBFCDBF21E0ACE7B0E001C0BA
:1002D0001D92A431B207E1F710E0A0E6B0E0E6EB32
:1002E000F9E102C005900D92AC37B107D9F711E0E2
:1002F000CEE5D1E003C02197FE0155DBCD35D10716
:10030000D1F78DD656CB7CCEC09AC29ABA9AB89AFB
:100310008FEF8FB98AE28DB980EF8EB90895CF93B0
:10032000DF9390E0FC01EC54FD4F249182559D4FEA
:10033000FC0184918823C1F090E0880F991FFC0193
:10034000E855FD4FC591D491FC01EE55FD4FA591A7
:10035000B4919FB7F8943881822F80958323888346
:10036000EC91E22BEC939FBFDF91CF91089590E049
:10037000FC01EC54FD4F2491FC01E255FD4FE4914A
:10038000EE2371F0F0E0EE0FFF1FE456FD4FA59154
:10039000B491EC91E22381E090E021F480E00895B3
:1003A00080E090E008953FB7F8948091900090919C
:1003B0009100A0919200B091930022B708B601FE7F
:1003C00005C02F3F19F00196A11DB11D3FBFBA2FE7
:1003D000A92F982F8827BC01CD01620F711D811DA7
:1003E000911D43E0660F771F881F991F4A95D1F72B
:1003F0000895CF92DF92EF92FF92CF93DF936B013C
:100400007C01D1DFEB01CFDF6C1B7D0B683E7340BD
:10041000A0F0C114D104E104F10439F4DF91CF91CB
:10042000FF90EF90DF90CF90089581E0C81AD10837
:10043000E108F108C851DC4FE6CFC114D104E10452
:10044000F10409F7EBCFCF92DF92EF92FF920F9377
:100450001F93CF93DF936C01EB017B01E40EF51E3C
:1004600010E000E0CE15DF0561F06991D601ED9155
:10047000FC910190F081E02DC6010995080F191F2C
:10048000F1CFC801DF91CF911F910F91FF90EF90B5
:10049000DF90CF900895E0918100F091820009945F
:1004A000E0917F00F09180000994E0918300F09149
:1004B0008400099580E4F4CFE0918300F0918400FA
:1004C000099580E0EDCF1F93CF93DF93C82F162FB0
:1004D000D62FD77080916800D82BEEDF8D2FE0DF0C
:1004E0008C2F82958F708061DBDF8C2F8F70D8DF2F
:1004F000D2DFC093950010939400DF91CF911F91AC
:1005000008950F931F93CF93DF93C0E010E86C2FF3
:1005100080E0D9DF80919500012F081B81F01093B6
:100520009500C3DFD0E080E0BBDF811104C0B3DF02
:10053000BCDF80E0B5DFDF5F0D13F5CFACDFCF5F51
:10054000C43029F760E080E0DF91CF911F910F91D7
:10055000BACF80919400860F24E030E0261B310949
:100560008217130609F034F480939400609194008C
:1005700080E0A9CF84E0861BF7CFAF92BF92CF92E5
:10058000DF92EF92FF920F931F93CF93DF93E0914F
:100590008700F0918800309741F06D3031F0D62F10
:1005A000C3816A3079F46C2FD4DF81E090E0DF9171
:1005B000CF911F910F91FF90EF90DF90CF90BF9060
:1005C000AF900895A28040919500EA2CF12C20E88C
:1005D00030E02E193F094217130619F014F06C2F62
:1005E000B8DFE0918700F091880024818C2F90E0A3
:1005F000B7018AD9BC014D2F421B550BCA0184D9C2
:100600008C01BC2E52DFC801282F201B2A15C0F4F4
:100610006C015FEFC51AD50AE0918700F091880060
:100620000190F081E02DE80FF91FD4918D2F38DF74
:10063000811104C030DF39DF8D2F32DFC601E4CFF6
:100640000E0D1F1D28DF80919500C13039F48A0DF1
:1006500080939500BA94B110D5CFA7CF6091940044
:100660006F5F91E09B1510F42EDFF4CF6C1B8A0DA9
:10067000FBCF0F931F93CF93DF938C01D0E0C0E0AB
:10068000F801EC0FFD1F6491662339F08EE091E0D4
:1006900074DF892B11F02196F3CFCE01DF91CF913A
:1006A0001F910F910895CF93DF93D82FC62F04DFAA
:1006B0008D2FF6DE8C2FF4DEDF91CF91ECCEC0983B
:1006C000C29AB29BFECF82E08A95F1F700C0C09A31
:1006D00085E08A95F1F700000895F1DF80E0089544
:1006E0008EB98BE295E09A95F1F700008DB9B29B37
:1006F000FECF92E09A95F1F700C08DB9769BF2CFCC
:1007000085E08A95F1F700008FB19FEF9FB9B89A05
:100710000895C2988FB980EFE3DFB8988EEFE0DFDD
:10072000809581700895F5CFCF93809112019091BB
:1007300013019C012F5F3F4F2230310528F00197B4
:100740009093130180931201B89880EFC9DFC82FEE
:100750008091120190911301892B39F48FEF8FB999
:100760008EEFBEDF8C2FCF9108951FB8F9CF6115A2
:10077000710531F0709313016093120161E070E034
:10078000C29AB29BFECF92E09A95F1F700C0C09852
:1007900092E09A95F1F700C0C298C09A779B0CC07E
:1007A000C298880F862B8FB980EF9ADFB8988EEFAA
:1007B00097DF80958170089580E00895CF93DF934F
:1007C000C82F70E060E081E1D2DF8C2FA2DFD0E0A3
:1007D000CC0FDD1FCA51DF4F89819BDF888199DFF4
:1007E000DF91CF916CCFBF92CF92DF92EF92FF92C9
:1007F0000F931F93CF93DF936CE070E080E1B7DF3E
:10080000CAEFD0E006E011E08FDFB82E8DDF9B2D20
:10081000899399930C171D07B9F751DF8091FA005E
:100820009091FB0097FF16C08091EA009091EB0039
:10083000877F9093EB008093EA0082E0BFDF809196
:10084000EA009091EB0088609093EB008093EA00BF
:1008500082E0B4DF8091C5008823E1F08091FA0046
:100860009091FB0096FF16C08091EC009091ED00F6
:100870008F7E9093ED008093EC0083E09FDF80916A
:10088000EA009091EB009E7F9093EB008093EA004A
:1008900082E094DF6091FA007091FB00172F111F26
:1008A0001127111F1093CF00CB01892F96E0869559
:1008B0009A95E9F721E0822781708093C50075FB46
:1008C000882780F98093C70073FB882780F980937D
:1008D000D00072FB882780F98093C9008091EC00DA
:1008E0009091ED00EC01C370DD2773708C70992737
:1008F0008430910509F4A2C008F093C0892B09F453
:10090000A4C090E080E0C6D52DEC3CEC4CE45DE367
:10091000C230D10589F02DEC3CEC4CEC5CE3C330EB
:10092000D10551F02DEC3CEC4CEC5DE3219721F42A
:100930002DEC3CEC4CE45EE30ED6A7019601E7D625
:100940006093CA007093CB008093CC009093CD004D
:100950002091FC008091FD00982F96959093CE00F9
:1009600081708093C800112309F451C0822F8F70C9
:100970008093D1008091FE009091FF0024FD70C013
:100980009093D3008093D200809100019091010157
:100990009093D5008093D4002091020130910301FF
:1009A0003093D7002093D6002091040130910501A7
:1009B0002093D8003093D900AC014427587F4115CB
:1009C000510519F04115584011F5880F867090E0D7
:1009D000AC014A565F4FFA01E059FF4F6081361370
:1009E0003BC0495B5F4FFA01308331E03093DC005C
:1009F00089569F4FFC01E059FF4F308123132EC0D1
:100A0000895B9F4FFC01208381E08093DC00DF91B4
:100A1000CF911F910F91FF90EF90DF90CF90BF90FB
:100A200008958830910551F00C9709F06ACFC12CD8
:100A3000D12C92E8E92E92E4F92E63CFC12CD12C6F
:100A400028E9E22E22E4F22E5CCFC12CD12C8EEAD2
:100A5000E82E82E4F82E55CF3083CACF2083D7CF3B
:100A60009093DB008093DA00D2CF64E670E080E000
:100A700090E0BFDCB8DE8091C5008111F6CF08950B
:100A800070E060E08CE373CE3FDCFADF811106C0DA
:100A90006AE070E080E090E0ACDCF7CF1ECEFC01B5
:100AA00001900020E9F73197AF01481B590BBC01B9
:100AB0008EE091E0C8CC8F929F92AF92BF92EF925E
:100AC000FF920F931F93CF93DF93CDB7DEB7A1971C
:100AD0000FB6F894DEBF0FBECDBF162F042F19A29C
:100AE000423008F40AE07E0121E2E20EF11C802E81
:100AF000912CB12CA12C612FA501940116D7802F28
:100B0000622FFBD5181B1A30F4F4105DF701129315
:100B10007F01122F732FCA01232B242B252B59F76A
:100B2000CF01BDDFA1960FB6F894DEBF0FBECDBFDB
:100B3000DF91CF911F910F91FF90EF90BF90AF90F9
:100B40009F908F900895195CE1CFC1C5CF93C82FB6
:100B50008A3018F487E790E0A2DF6C2F70E090E015
:100B600080E04AE0CF91A7CF8F929F92AF92BF9241
:100B7000CF92DF92EF92FF920F931F93CF93DF9369
:100B800032DE80B58E7F80BD86B1806986B98CE00B
:100B900087B961E070E080E090E02BDC85B7877E6C
:100BA000886085BF85B7806285BF889585B78F7D52
:100BB00085BF3699FECF24B135B1379880B58160B5
:100BC00080BD50E040E064EB7BE281E190E0CFD675
:100BD00030937D0020937C0094DC60E080E073DC47
:100BE000E3E8F2E06491EF01662339F08EE091E0F2
:100BF000C4DC2196FE016491F7CF8091DC0088234C
:100C000049F061E080E05FDC88E792E032DD8DED65
:100C100090E045DF62E080E056DC82E792E029DD8B
:100C20008091670093DF62E08CE34DDC8CE692E01C
:100C300020DDC090CA00D090CB00E090CC00F090B6
:100C4000CD0020E030E0A901C701B6011FD487FF25
:100C500008C06DE28EE091E090DCF7FAF094F7F8CE
:100C6000F0942AE037ED43EA5BE3C701B6014FD5C4
:100C70004B015C011DD66B017C010CD49B01AC01C6
:100C8000C501B40143D54B015C014AE0C701B6017F
:100C900012DF89E790E003DF20E030E040E251E43A
:100CA000C501B40158D44B015C01FDD56B01770F30
:100CB000EE08FF088601DE2DCF2DF7FE0CC06DE299
:100CC0008EE091E05ADCF094E094D094C094C11C82
:100CD000D11CE11CF11C4AE0C701B601ECDEB801F1
:100CE0008D2F9C2FD9D39B01AC01C501B4010ED52A
:100CF00020E030E040E251E42ED4D5D56B01770FEF
:100D0000EE08FF08F7FE0CC06DE28EE091E035DCE6
:100D1000F094E094D094C094C11CD11CE11CF11C4F
:100D20004AE0C701B601C7DE63E080E0CCDB86E6BF
:100D300092E09FDC8091CE0009DF63E08CE3C3DBAF
:100D400080E692E096DC80917C0090917D00803876
:100D50009C4000F588E592E08CDCF090660080E233
:100D6000F826F0926600A8DB8F2D9ADB94DB809149
:100D7000680094E0892780936800DF91CF911F91EC
:100D80000F91FF90EF90DF90CF90BF90AF909F902A
:100D90008F9008958DE592E0DFCFFF920F931F9320
:100DA000CF93DF93EC01F62E08811981C8018FD40F
:100DB000F81619F06F2DC80192D4CE01DF91CF91B2
:100DC0001F910F91FF9008950F931F93CF93DF937F
:100DD00000D0CDB7DEB720E030E048EC52E46091BF
:100DE000CA007091CB008091CC009091CD00B3D31C
:100DF0005FD5162F072F1A8219826CE6CE01019655
:100E0000CCDF81E090E09A83898367EECE01019682
:100E1000C4DF82E090E09A838983602FCE0101963F
:100E2000BCDF83E090E09A838983612FCE01019635
:100E3000B4DF6091670084E090E09A838983CE01FB
:100E40000196ABDF0F900F90DF91CF911F910F9123
:100E500008951F920F920FB60F9211242F933F9374
:100E60008F939F93AF93BF9380918C0090918D004F
:100E7000A0918E00B0918F0030918B0026E0230F5F
:100E80002D3768F129E8230F0396A11DB11D20938A
:100E90008B0080938C0090938D00A0938E00B09374
:100EA0008F008091900090919100A0919200B0915C
:100EB00093000196A11DB11D809390009093910025
:100EC000A0939200B0939300BF91AF919F918F91A7
:100ED0003F912F910F900FBE0F901F901895029683
:100EE000A11DB11DD4CF18951F920F920FB60F926E
:100EF00011242F933F934F935F936F937F938F931F
:100F00009F93AF93BF93CF93DF93EF93FF9383E0D0
:100F10002EDAEC0184E02BDACC0FDD1F8C2B9D2B1D
:100F200020917E0030E0220F331F220F331F282B29
:100F3000392B2D30310549F02430310531F0223084
:100F4000310519F02B30310551F440918900509151
:100F50008A004F5F5F4F50938A00409389002E3084
:100F6000310549F0A901475051094230510518F0A7
:100F70002130310551F42091890030918A002150AF
:100F8000310930938A002093890080937E008091FC
:100F9000890090918A0097FD2BC0209189003091A3
:100FA0008A00809160009091610082179307D8F4C5
:100FB000809160009091610090938A0080938900F5
:100FC000FF91EF91DF91CF91BF91AF919F918F9161
:100FD0007F916F915F914F913F912F910F900FBE35
:100FE0000F901F9018958091890090918A00E4CF0E
:100FF00090E080E0E1CF1F920F920FB60F92112484
:101000008F930FB6F894A89581B5886181BD11BC06
:101010000FBE8F910F900FBE0F901F90189583E019
:101020008ABD83BF789489B7826089BF80E48CBD14
:101030008FEF8DBD87EC80BF86B18877866886B9D3
:10104000379A14BE88E981BD83E481BDA89581E00B
:1010500066D983E064D984E062D980E28BBF8AE1FB
:1010600085BB86E086B9339A789480B5816080BD6F
:101070004BD9E0918500F091860009951DDA0BDAD5
:1010800064E18DE810DB61EA88EC0DDB61E086ED60
:101090000ADB81E790E090938800809387006FE7F8
:1010A00081E801DB2EDA08DA8FEAFAD9F4D98091E7
:1010B000680094E0892780936800E6EEF0E086E01F
:1010C00091E0119211928E179F07D9F781E08093DA
:1010D000BE001092BF001092C0001092C10010928A
:1010E000C20085E08093C3001092C4000DD970E067
:1010F00060E081E13CDBC82FE2DACC23D1F183E070
:1011000090E09093EB008093EA001092ED00109233
:10111000EC0080E098E09093EF008093EE008091E7
:10112000C30090E0806898689093F1008093F0008D
:101130001092F3001092F2001092F5001092F40059
:10114000C2E08C2F3BDBCF5FC830D9F78DE090EC4D
:101150009093EB008093EA0082E030DB8091EC001A
:101160009091ED0080619093ED008093EC0083E01E
:1011700025DB90E080E0E9DCC82F81E090E0E5DC51
:101180009C2F873E9C46F1F482E090E0DEDCC82F85
:1011900083E090E0DADC9C2FBC0190E080E07AD123
:1011A00020E030E048EC52E416D360936200709384
:1011B0006300809364009093650084E090E0C5DC58
:1011C0008093670060916200709163008091640079
:1011D00090916500C091EC00D091ED008E010370FC
:1011E00011279E012C7033272430310509F41EC1CC
:1011F00008F00AC1232B09F413C12DEC3CEC4CE49C
:101200005DE30230110591F02DEC3CEC4CEC5CE31D
:101210000330110559F02DEC3CEC4CEC5DE3013052
:10122000110521F42DEC3CEC4CE45EE3D4D240D328
:101230008B01FF24F394F092C5001092C800109225
:10124000DC0080E28093DD008093DE008093DF008D
:101250008093E0008093E1008093E2008093E300BC
:101260008093E400CF7ED093ED00C093EC0083E048
:10127000A5DA8091EC009091ED008061B80146E024
:10128000660F771F4A95E1F7682B792B7093ED0075
:101290006093EC0083E092DA209167002093C30012
:1012A0008091F0009091F100807F2F70822B9093BD
:1012B000F1008093F00085E081DAF092C200809125
:1012C000EA009091EB0090619093EB008093EA002C
:1012D00082E074DA1092BF008091EA009091EB00F6
:1012E00090649093EB008093EA0082E067DABDDBC4
:1012F0003BDCD8E913E4C0E204E085B7877E806177
:1013000085BF8AB780628ABF80B58F6080BDF89440
:1013100014BED1BD11BDA89585B7806285BF7894F4
:10132000889585B78F7D85BF80B5807F80BD80B56E
:10133000816080BD81E01BD8892BE9F5E2D860E0AF
:1013400080E0C1D881E992E094D9F0906600FC2653
:10135000F0926600B1D88F2DA3D89DD880916800F7
:1013600080278093680081E08093C5001092C800B8
:101370001092DC00C093DD00C093DE00C093DF005C
:10138000C093E000C093E100C093E200C093E3008B
:10139000C093E4008091EA009091EB0093609093F9
:1013A000EB008093EA0082E009DA5FDB81E0DFD7BF
:1013B000892BE1F309DD8091890090918A002091C9
:1013C0006700959587959595879528171906D1F00B
:1013D0008091890090918A0095958795959587953C
:1013E000809367008093C3002091F0003091F1005A
:1013F000207F8F70282B3093F1002093F00085E040
:10140000DDD9E2DCB1DB79CF2830310579F02C3041
:10141000310509F0F2CE20E030E042E852E404C0A9
:1014200020E030E04EEA52E471D1E7CE20E030E037
:1014300048E952E4F9CFEEE0F1E0138212828DE642
:1014400090E09183808384E495E09093860080937C
:10145000850080E495E0909384008093830083E985
:1014600093E09093800080937F008DE693E09093CB
:1014700082008093810080916700282F30E03093B4
:101480008A002093890080937E00089540D008F45C
:1014900081E00895E89409C097FB3EF4909580950B
:1014A000709561957F4F8F4F9F4F9923A9F0F92F2A
:1014B00096E9BB279395F695879577956795B795A8
:1014C000F111F8CFFAF4BB0F11F460FF1BC06F5F8E
:1014D0007F4F8F4F9F4F16C0882311F096E911C0A0
:1014E000772321F09EE8872F762F05C0662371F0C1
:1014F00096E8862F70E060E02AF09A95660F771FD5
:10150000881FDAF7880F9695879597F90895990FB0
:101510000008550FAA0BE0E8FEEF16161706E807BD
:10152000F907C0F012161306E407F50798F0621BDE
:10153000730B840B950B39F40A2661F0232B242BB3
:10154000252B21F408950A2609F4A140A6958FEFD2
:10155000811D811D08950AD080C071D028F076D0F9
:1015600018F0952309F062C067C0ABC087D0A8F31C
:101570009923D9F35523C9F3950F50E0551FAA2796
:10158000EE27FF27BB2700240894679520F4E20F7D
:10159000F31FB41F0A1E220F331F441FAA1F669594
:1015A000A9F7779530F4F30FB41F0A1E121E08F442
:1015B0006395330F441FAA1F221F769599F78795CD
:1015C00020F4B40F0A1E121E631F440FAA1F221F0D
:1015D000331F8695A9F7862F712D602D11249F57F3
:1015E00050408AF0E1F088234AF0EE0FFF1FBB1F46
:1015F000661F771F881F91505040A9F79E3F5105E5
:1016000070F014C05EC05F3FECF3983EDCF386954B
:1016100077956795B795F795E7959F5FC1F7FE2B8F
:10162000880F911D9695879597F9089597F99F676B
:1016300080E870E060E008959FEF80EC089500245A
:101640000A941616170618060906089500240A9427
:1016500012161306140605060895092E0394000CAD
:1016600011F4882352F0BB0F40F4BF2B11F460FF3C
:1016700004C06F5F7F4F8F4F9F4F089557FD905865
:10168000440F551F59F05F3F71F04795880F97FB46
:10169000991F61F09F3F79F0879508951216130600
:1016A0001406551FF2CF4695F1DF08C0161617062F
:1016B0001806991FF1CF8695710561050894089564
:1016C000E894BB2766277727CB0197F90895E1991E
:1016D000FECF9FBB8EBBE09A99278DB30895262F2E
:1016E000E199FECF1CBA9FBB8EBB2DBB0FB6F89401
:1016F000E29AE19A0FBE01960895002480FD060E3D
:10170000660F11F08695D1F7802D08955058BB27AC
:10171000AA270ED0A2CF93DF30F098DF20F031F46B
:101720009F3F11F41EF488CF0EF4E095E7FB7ECFC7
:10173000E92FA4DF80F3BA176207730784079507C0
:1017400018F071F49EF5BCCF0EF4E0950B2EBA2F75
:10175000A02D0B01B90190010C01CA01A0011124B7
:10176000FF27591B99F0593F50F4503E68F11A1663
:10177000F040A22F232F342F4427585FF3CF4695F4
:1017800037952795A795F0405395C9F77EF41F1616
:10179000BA0B620B730B840BBAF09150A1F0FF0FE0
:1017A000BB1F661F771F881FC2F70EC0BA0F621FCC
:1017B000731F841F48F4879577956795B795F795BC
:1017C0009E3F08F0B3CF9395880F08F09927EE0F4E
:1017D0009795879508950CD040CF38DF40F02FDFE4
:1017E00030F021F45F3F19F021CF51116ACF24CF9F
:1017F00045DF98F39923C9F35523B1F3951B550B96
:10180000BB27AA2762177307840738F09F5F5F4FD3
:10181000220F331F441FAA1FA9F333D00E2E3AF014
:10182000E0E830D091505040E695001CCAF729D02E
:10183000FE2F27D0660F771F881FBB1F261737077D
:101840004807AB07B0E809F0BB0B802DBF01FF27AD
:1018500093585F4F2AF09E3F510568F0E7CE31CF95
:101860005F3FECF3983EDCF3869577956795B795E7
:10187000F7959F5FC9F7880F911D9695879597F902
:101880000895E1E0660F771F881FBB1F621773077B
:101890008407BA0720F0621B730B840BBA0BEE1F90
:1018A00088F7E095089504D06894B1110ACF08959F
:1018B000EDDE88F09F5790F0B92F9927B751A0F02F
:1018C000D1F0660F771F881F991F1AF0BA95C9F7D4
:1018D00012C0B13081F0F4DEB1E00895F1CE672F8F
:1018E000782F8827B85F39F0B93FCCF38695779584
:1018F0006795B395D9F73EF490958095709561956D
:101900007F4F8F4F9F4F08950024552704C0080E26
:10191000591F880F991F009729F076956795B8F39E
:101920007105B9F7802D952F0895A1E21A2EAA1BF3
:10193000BB1BFD010DC0AA1FBB1FEE1FFF1FA2177F
:10194000B307E407F50720F0A21BB30BE40BF50B7C
:10195000661F771F881F991F1A9469F76095709505
:10196000809590959B01AC01BD01CF010895052E96
:1019700097FB16F400940FD057FD05D0D6DF07FC77
:1019800002D046F408C050954095309521953F4FC0
:101990004F4F5F4F089590958095709561957F4F5B
:1019A0008F4F9F4F0895EE0FFF1F0590F491E02D8C
:0619B0000994F894FFCF3A
:1019B6003C003333CD424001B000000000BD02239D
:0C19C600021E000601207E20002E000002
:00000001FF
