:1000000036C150C1CAC24EC14DC14CC14BC14AC11B
:1000100049C148C147C146C145C144C143C10000AF
:1000200000000000002F00000007000700147F14EC
:100030007F14242A7F2A122313086462364955222A
:10004000500005030000001C2241000041221C005A
:1000500014083E081408083E08080000A0600008C4
:1000600008080808006060000020100804023E51E3
:1000700049453E00427F4000426151494621414589
:100080004B311814127F1027454545393C4A4949E0
:100090003001710905033649494936064949291E87
:1000A00000363600000056360000081422410014C5
:1000B0001414141400412214080201510906324993
:1000C00059513E7C1211127C7F494949363E4141CB
:1000D00041227F4141221C7F494949417F09090949
:1000E000013E4149497A7F0808087F00417F41006D
:1000F0002040413F017F081422417F404040407F23
:10010000020C027F7F0408107F3E4141413E7F097F
:100110000909063E4151215E7F0919294646494990
:10012000493101017F01013F4040403F1F204020F5
:100130001F3F4038403F63140814630708700807E6
:100140006151494543007F414100020408102000ED
:1001500041417F0004020102044040404040000150
:1001600002040020545454787F48444438384444AE
:100170004420384444487F3854545418087E0901B8
:100180000218A4A4A47C7F0804047800447D4000E5
:100190004080847D007F1028440000417F40007C27
:1001A000041804787C080404783844444438FC2457
:1001B00024241818242418FC7C08040408485454E7
:1001C0005420043F4440203C4040207C1C204020E0
:1001D0001C3C4030403C44281028441CA0A0A07C7B
:1001E0004464544C44083641410000007F00000044
:1001F000414136080804081008FFFFFFFFFFC8A1AF
:10020000A81FDA028D14AF1027E80364000A00016A
:100210000054756E696E67202E2E2E004F4B0077AE
:1002200065616B002020204261743A2000536967A9
:100230003A20002020204672713A2000566F6C3A16
:10024000200053746174696F6E3A2020005374610A
:100250007274696E67202E2E2E0054696E792046C6
:100260004D20526164696F2076312E3000001124D8
:100270001FBECFE5D2E0DEBFCDBF10E0A0E6B0E00C
:10028000E8E4FAE002C005900D92AE36B107D9F766
:1002900020E0AEE6B0E001C01D92AA39B207E1F756
:1002A0000CD2D0C3ADCEE5E8F0E080E2819390E0DF
:1002B000ED38F907D9F70895282FB89898E080E02D
:1002C000880FBA98B0998160BA9A9150C9F72111F4
:1002D000B89ABA98BA9A0895B89ABA98B8980895F8
:1002E00098E087FF02C0B89801C0B89ABA98BA9A45
:1002F000880F9150B1F7B898BA98BA9A0895B89AF9
:10030000BA9AEECFCF93C82F88E7F9DF80E0E8DF15
:1003100080E0E6DF80E1E4DF8C2F8770806BE0DF38
:10032000DBDF10929900C0939800CF910895CF938E
:10033000C82F82E2E4DF82E08C0FD2DFEC2FF0E006
:10034000EE0FFF1FE05AFF4FC0818181C9DF8C2F64
:10035000C7DFCF91C1CF0F931F93CF93DF9381E27C
:10036000CEDF09E710E0D5E081E0A6DFC82F8D2FB2
:10037000A3DF2C2F30E0322F2227282BF8012193E6
:1003800031938F01D15080F7A7DFC0917900D091D0
:100390007A00D6FF16C080916200909163008F7E34
:1003A000909363008093620081E0C1DF80916000E0
:1003B000909161009E7F909361008093600080E047
:1003C000B6DFD7FF3BC0C0916000D0916100C77F0E
:1003D000D0936100C093600080E0A9DFC860D09333
:1003E0006100C093600080E0A2DF80917B0084FD0B
:1003F00025C080917F00909180009C012227387F4A
:10040000232BE1F420918300309184008370880FC6
:1004100090E0FC01E259FF4F4081341303C0FC011E
:10042000EB57FF4F30830196FC01E259FF4F3081BB
:10043000231303C0FC01EB57FF4F2083DF91CF91C3
:100440001F910F9108952FDFE0E6F0E08081918108
:1004500091609183808380E06ACF0F931F93CF9345
:10046000DF93082E000C990B80978C01000F111F51
:10047000000F111F080F191F80E032DFC0E0D0E02D
:10048000F801EC0FFD1FE25EFF4F849129DF2196FA
:10049000C530D105A9F7809199008A5F80939900B2
:1004A0008B3778F019DF809198008F5F80939800E8
:1004B00029DF88E724DF80E4DF91CF911F910F913E
:1004C0000FCFDF91CF911F910F910895CF93C82F38
:1004D000843608F0C3E688E712DF80E401DF80E0BD
:1004E000CA3018F08F5FCA50FBCF882311F0805DAF
:1004F00001C080E2B2DF80E38C0FAFDFCF91ECCEA2
:10050000CF93DF93EC0188E7FADE80E4E9DEFE01B9
:100510008491882319F0A1DF2196F9CFDF91CF9143
:10052000DBCE88E7ECDE80E4DBDE8091990091E0B1
:10053000980F9093990087FD02C080E0F5CFCCDE44
:10054000809198008F5F843018F48093980002C0E7
:100550001092980080919800D5CE87EA91E6019795
:10056000F1F700C00000F7DE8091790090917A00E9
:1005700096FFF3CF089567EE7CE680E090E03AD2F4
:100580006091790070917A00737082E090E032D2CD
:1005900060916C0084E090E01BC21F920F920FB636
:1005A0000F9211242F933F934F935F936F937F93F9
:1005B0008F939F9386B321E083FB882780F982275E
:1005C00096B392959170922720917800821709F442
:1005D00067C08093780020917700921709F460C07B
:1005E000909377002091900030919100891303C07F
:1005F00031952195310940918E0050918F00240F43
:10060000351F30938F0020938E0021E0891320E066
:1006100040917600622F70E050E064177507C1F0DA
:10062000891308C0809190009091910091958195D7
:10063000910904C0809190009091910040918E00AA
:1006400050918F00840F951F90938F0080938E00A0
:1006500040918E0050918F00809194009091950070
:100660004817590744F48091940090919500909315
:100670008F0080938E0040918E0050918F0080916A
:100680009200909193008417950744F48091920012
:100690009091930090938F0080938E00209376002A
:1006A0009F918F917F916F915F914F913F912F918A
:1006B0000F900FBE0F901F90189583E086B98CE0C5
:1006C00087B9C39AC49AC19AAB9A86B391E083FB67
:1006D000882780F989278093780086B38295817076
:1006E000982790937700209178009091770081E08F
:1006F000291380E0809376008BB780628BBF78945B
:1007000080E888B98FE080BD88E7F9DD80E0E8DD2A
:10071000CEEFD1E007E012E0FE018491E1DD219609
:100720000C171D07C9F7D8DD80E0ECDDFADEF9DE35
:10073000F8DEF7DE8AE592E0E3DEF3DE8DE492E0B8
:10074000DFDEB1DD10928D0000916000109161003C
:10075000C801826090936100809360008091660080
:10076000909167008160909367008093660080E2BB
:10077000C6DDC0E6D0E0ACE6EA2EA0E0FA2ED880D6
:1007800089812296ADDD8D2DABDDEC16FD06B9F726
:10079000A3DD0D7F109361000093600080E0C7DD52
:1007A00080E090E010D1873E9C4609F002C182E0D3
:1007B00090E009D1EC01909397008093960084E03B
:1007C00090E0F9D080936C006EDD80916200909192
:1007D00063008F7399278061F6E0CC0FDD1FFA95D7
:1007E000E1F7C82BD92BD0936300C093620081E05E
:1007F0009EDD80916C0010929500109294002EE185
:1008000030E0309393002093920021E030E0309369
:1008100091002093900090E09C01220F331F3093B1
:100820008F0020938E002091660030916700207F1A
:10083000822B932B909367008093660083E077DD93
:100840008CDE05EF1BE287DD80B58E7F80BD379A99
:1008500083EF91E00197F1F700C00000369A3699D6
:10086000FECF64B175B1379880B5816080BDC80195
:10087000D5D0E62E81E046DD82E492E041DE88E7D5
:100880003EDD80E42DDDC5E8D0E08991882311F0BC
:10089000E4DDFBCF21DD45DE8CE392E031DE8091AB
:1008A0006C0014DE83E392E02BDE8091790090915E
:1008B0007A009370EC0153E0CC0FDD1F5A95E1F7FD
:1008C000880F991FC80FD91FC450DE4D88E717DD68
:1008D00080E406DD77E0C72E72E0D72EB12CF12C34
:1008E000F6012591349180E0C217D30730F08F5F75
:1008F000C21BD30BBB24B394F7CFB11003C091E05C
:100900009F1538F4805DA9DDE2E0FE1204C08EE29E
:1009100001C080E2A2DDF394F2E0CF0ED11C25E00D
:10092000F212DECFD9DC8DE292E0EADD80917C002C
:100930008695CCDD84E292E0E3DD8FE18E1518F040
:100940008FE192E002C08CE192E0DADDEADDB1995C
:100950000DC081E0D7DC81E192E0D2DDE2DDE1DDB6
:10096000E0DD71DDFADDB19BFECF05DE80918E000A
:1009700090918F0020916C0030E095958795281715
:10098000390709F460CF20918E0030918F003595A2
:10099000279520936C008091660090916700807F7E
:1009A000822B909367008093660083E0C0DCE3DDD8
:1009B0004ACF49DD1ECFE199FECF9FBB8EBBE09AA7
:1009C00099278DB30895A8E1B0E042E050E018C047
:1009D000262FE199FECF9FBB8EBBE09A01970DB207
:1009E000021639F01CBA2DBB0FB6F894E29AE19AC0
:1009F0000FBE08950196272FECDFEACFDC01CB0173
:100A0000FC01E199FECF06C0FFBBEEBBE09A319638
:100A10000DB20D9241505040B8F70895AA1BBB1B70
:100A200051E107C0AA1FBB1FA617B70710F0A61BEE
:100A3000B70B881F991F5A95A9F780959095BC010F
:080A4000CD010895F894FFCFE9
:0E0A48000DD2C015000A8088000000000100D9
:00000001FF
